:100000000C942D010C9455010C9455010C94550140
:100010000C9455010C9455010C9455010C94550108
:100020000C9455010C9455010C94F3060C94620742
:100030000C9455010C9455010C9455010C945501E8
:100040000C9455010C9455010C9455010C945501D8
:100050000C9455010C9455010C9455010C94940981
:100060000C9455010C9455010C9455010C945501B8
:100070000C9455010C9455010C9455010C945501A8
:100080000C9455010C9455010C9455010C94550198
:100090000C9455010C9455010C9455010C94550188
:1000A0000C9455010C9455010C945501000000006E
:1000B000250028002B002E00310000000000240045
:1000C00027002A002D003000000000002300260039
:1000D00029002C002F000404040404030405020278
:1000E00002020403020202020606060606060404D1
:1000F0000202020404040802011040804010204063
:10010000804080080204018040201002011080100D
:10011000204040200000000200090F0000030401FD
:10012000000C0000000000000000000000000000C3
:10013000000000080B000202020000090400000198
:10014000020200000524001001052401010104241D
:10015000020605240600010705810310004009047A
:100160000100020A00000007050202400000070526
:1001700083024000000403090412010002EF02019F
:100180004041233680000101020301417264756918
:100190006E6F204C4C430041726475696E6F204C49
:1001A000656F6E6172646F00000000000000000067
:1001B0002A2B2800000000000000000000000000C2
:1001C00000000000000000002C9EB4A0A1A2A434F6
:1001D000A6A7A5AE362D3738271E1F20212223249F
:1001E0002526B333B62EB7B89F8485868788898A3B
:1001F0008B8C8D8E8F909192939495969798999AD7
:100200009B9C9D2F3130A3AD350405060708090AD4
:100210000B0C0D0E0F101112131415161718191AB6
:100220001B1C1DAFB1B0B50005010906A101850277
:10023000050719E029E715002501750195088102D8
:100240009501750881039506750815002573050746
:10025000190029738100C000DE0911241FBECFEFF1
:10026000DAE0DEBFCDBF11E0A0E0B1E0E4ECF8E100
:1002700002C005900D92AE33B107D9F722E0AEE38C
:10028000B1E001C01D92AA33B207E1F711E0CDE25F
:10029000D1E004C02197FE010E945A0CCC32D10754
:1002A000C9F70E943B0B0C94600C0C940000CF9398
:1002B000DF93FC0181819091B101482F490F5527AF
:1002C000551F483051059CF5A281B381109709F55F
:1002D0002DEA31E03383228320812093AF01809384
:1002E000B0018091B201820F80832091B301A22FCF
:1002F000B091B4018A2F821B8917E8F481813D9166
:10030000C82FD0E0C45FDE4F38838F5F8183F2CF88
:10031000D90118962D913C91199721153105C1F7F6
:100320002DEA31E019963C932E931897D5CF80E0B3
:10033000DF91CF91089581E0FBCFFC0180915C01BA
:10034000882311F13FB7F89482E08093E90020916F
:10035000F200822F90E01816190614F481E090E064
:10036000882339F0289844E640935B014091F100DE
:100370004083222339F02091F200211103C02BE6A3
:100380002093E8003FBF08958FEF9FEF0895DC01B1
:10039000FB0112962C9112978481958128171906DA
:1003A00041F491818081813A31F49D7F81E09130E7
:1003B00009F080E008958132E1F79B3029F48281D1
:1003C0001F968C9381E008959A3099F78281509618
:1003D0008C93F8CFDC01FB0188E4808389E481837E
:1003E00084E482831D969C911D979F709F5B9383ED
:1003F0001D968D919C9124E0969587952A95E1F71D
:100400008F708F5B848385E0089580915301811103
:100410000DC082E080934F0184E0809350011092E0
:1004200052011092510181E0809353018FE491E0D9
:100430000895CF93DF931F92CDB7DEB76983DC01B8
:10044000ED91FC910280F381E02D41E050E0BE018E
:100450006F5F7F4F09950F90DF91CF91089583E0F3
:100460008093E9008091F200882319F08AE3809359
:10047000E8000895CF93DF931F92CDB7DEB7FC015C
:100480008485958597FD08C02FEF3FEF358724873A
:100490000F90DF91CF910895CE0101960E949D01AA
:1004A000019719F4898190E0F3CF8FEF9FEFF0CFA0
:1004B0000F931F93CF93DF931F92CDB7DEB78C01BD
:1004C000FC018485958597FF0BC0CE0101960E94A3
:1004D0009D01019771F4898190E0F80195878487E7
:1004E000F801848595850F90DF91CF911F910F9131
:1004F00008958FEF9FEFF1CFFC018485958597FDDF
:100500000BC09FB7F89482E08093E9008091F200DD
:100510009FBF90E0019608959FB7F89482E0809382
:10052000E9008091F2009FBF90E008954091490159
:1005300050914A01209147013091480142175307D9
:10054000B4F49091E8009570E1F39091E80092FD89
:1005500019C08093F1008091490190914A01019660
:100560008F739927892B19F48EEF8093E80080917F
:10057000490190914A01019690934A018093490163
:1005800081E0089580E00895EF92FF920F931F930A
:10059000CF93DF93F82E192FE62E042F81E0860FDC
:1005A000880F0E94960283E00E949602CF2DD12FE1
:1005B000EC0EFD2EF11CCE15DF05B9F007FF13C0C0
:1005C000FE0184910E949602182F80E00E949602FC
:1005D000812321968111EFCFDF91CF911F910F9150
:1005E000FF90EF9008958881EDCF81E0F5CFDF9205
:1005F000EF92FF920F931F93CF93DF93D82E8A0130
:10060000EB017B01E40EF51ECE15DF0559F0D7FE98
:1006100012C0FE0184910E94960221968111F4CFAE
:100620000FEF1FEFC801DF91CF911F910F91FF9046
:10063000EF90DF9008958881EECFEF92FF920F93B5
:100640001F93CF93DF93FB012081213871F5238124
:10065000223259F5DC0112964C91248135814217E2
:10066000130619F5EC010B851C85F12CE12C011505
:10067000110589F0F801448155816281738180E818
:100680000E94F7028F3F980749F0E80EF91ED80143
:100690000D911C91ECCF81E08F87C701DF91CF9145
:1006A0001F910F91FF90EF90089590E080E0F6CFBA
:1006B000CF93DF93CDB7DEB769970FB6F894DEBF5F
:1006C0000FBECDBFFC01DB018C918F5F8C939E012F
:1006D0002D5F3F4F8DE0D9011D928A95E9F729E002
:1006E000298384E08A8391E09D8383E08E832A8737
:1006F00021E22B879C879D879F8722E2288B27E01A
:100700002B8B25E02C8B8E8B20E430E0388F2F8BC9
:10071000998F82818B8395858685998B8A8B83813E
:1007200080688D8B49E150E0BE016F5F7F4F80E0B4
:100730000E94F70269960FB6F894DEBF0FBECDBFD8
:10074000DF91CF9108950F931F93CF93DF931F9263
:10075000CDB7DEB782E0898342E450E063E371E025
:1007600080E80E94F7020E940502DC0112960D91BA
:100770001C910115110589F0D801ED91FC910280C1
:10078000F381E02DBE016F5F7F4FC801099597FD92
:1007900004C0F80100851185ECCF89810F90DF91AD
:1007A000CF911F910F9108952FB7F8948770809380
:1007B000E9009091E800892F807295FF04C0909124
:1007C000F20080E4891B2FBF089583E00E94D403C8
:1007D00090E00895615030F02091F100FC012083F9
:1007E0000196F8CF289884E680935B0108958150A4
:1007F0008F3008F047C0E82FF0E0EF5FFB4F0C941C
:100800005A0C1E042204100416041A044204420462
:10081000420425042B042F043304390442043D040C
:10082000809180008F778093800008958091800070
:100830008F7DF9CF80918000877FF5CF84B58F774A
:1008400084BD089584B58F7DFBCF809190008F7714
:10085000809390000895809190008F7DF9CF8091D2
:100860009000877FF5CF8091C0008F778093C00084
:1008700008958091C0008F7DF9CF8091C200877F5D
:100880008093C2000895CF93DF93282F30E0F901C1
:10089000EC5EFE4F8491F901EB50FF4FD491F901CA
:1008A000EA52FF4FC491CC23A1F081110E94F703BB
:1008B000EC2FF0E0EE0FFF1FE853FF4FA591B4912E
:1008C000EC91ED2381E090E009F480E0DF91CF919D
:1008D000089580E090E0FACFCF93DF9390E0FC01A1
:1008E000EB50FF4F24918A529F4FFC018491882343
:1008F000D1F090E0880F991FFC01E654FF4FA591BD
:10090000B491FC01E455FF4FC591D491623071F46C
:100910009FB7F8943C91822F809583238C93E88134
:100920002E2B28839FBFDF91CF9108958FB7F89426
:10093000EC912E2B2C938FBFF6CF3FB7F89480917C
:10094000430190914401A0914501B091460126B523
:10095000A89B05C02F3F19F00196A11DB11D3FBFF7
:10096000BA2FA92F982F8827BC01CD01620F711DC6
:10097000811D911D42E0660F771F881F991F4A95C0
:10098000D1F70895CF92DF92EF92FF920E949D04DB
:100990006B017C010E949D046C197D098E099F09E1
:1009A000683E734081059105A8F3FF90EF90DF90BA
:1009B000CF9008957F928F929F92AF92BF92CF92E5
:1009C000DF92EF92FF920F931F93CF93DF93C82E86
:1009D0008B017A0180915C01811110C08FEF9FEF34
:1009E000DF91CF911F910F91FF90EF90DF90CF900B
:1009F000BF90AF909F908F907F90089580914D0110
:100A000080FF05C08091E00082608093E000CE2DE1
:100A1000DF2DD12C8AEFB82E8C2D8770982E8C2D3F
:100A20008072882E8C2D8074782E9AE3A92E2097C0
:100A300019F4DD2009F44EC08C2D0E94D4038111DD
:100A400006C0BA94BB2051F20E94C204F0CF8C17AA
:100A50001D0611F00CF08C2F9FB7F8949092E900CE
:100A60002091E80025FD02C09FBFE1CF282F30E094
:100A7000C21BD30B882029F08150A0F01092F10006
:100A8000FBCFF801C7FC0AC0815050F04191409360
:100A9000F100FACF44914093F10031968150D0F7A4
:100AA000020F131FDD2021F0A092E800D12CDCCF33
:100AB0008091E80085FD07C0A092E800DD24D39472
:100AC000209791F2F3CF209779F6772069F2A092E0
:100AD000E800CACF5D9884E680934E01C70180CFBD
:100AE000EF92FF921F93CF93DF931F92CDB7DEB7A4
:100AF0007C018091BE0181112AC011E01093B101E7
:100B00001093B20187EB91E09093B4018093B3010D
:100B10001092B6011092B50189E291E09093AE0176
:100B20008093AD011092B9011092B8011092BB01EF
:100B30001092BA011093BC011093BD0181EC809317
:100B4000B7010E9405020E9457011093BE0182E086
:100B5000898341E050E0BE016F5F7F4F8091B0011B
:100B60000E94DA0497FD08C08091B00148E050E08F
:100B7000B70180640E94DA040F90DF91CF911F913A
:100B8000FF90EF900895CF93DF93EC0180910B01DC
:100B9000882331F083E00E94DA041816190634F035
:100BA00081E090E09B838A8380E090E0DF91CF91A9
:100BB0000895CF92DF92EF92FF920F931F93CF93FE
:100BC000DF936C01EB017B01E40EF51E10E000E009
:100BD000CE15DF0581F069916D30D1F3D601ED912D
:100BE000FC910190F081E02DC6010995892B19F047
:100BF0000F5F1F4FEDCFC801DF91CF911F910F9174
:100C0000FF90EF90DF90CF900895DC016838A0F05E
:100C10006858FD0186E0662321F09681961301C095
:100C20001682815031968111F6CFCD0104960E9433
:100C3000700581E090E00895862F90E067FF13C073
:100C4000FC01E058F10981E090E001C0880FEA95CD
:100C5000EAF7809514969C911497892314968C93A7
:100C6000149760E0D6CF1C96ED91FC911D97E80F8C
:100C7000F91F64916623E1F0862F807C803C69F443
:100C800014968C9114978F7B14968C9314976F7392
:100C9000623309F0BECF64E6BCCF67FFF9CF14968C
:100CA0008C9114978D7F14968C9314976F77F0CF57
:100CB00090E080E00895DC01683888F16858169665
:100CC0008C911697861721F117968C911797861796
:100CD000F9F018968C9118978617D1F019968C9187
:100CE00019978617A9F01A968C911A97861781F092
:100CF0001B968C911B97861759F0FD01369690E054
:100D000080E0219121114FC08A0F9B1FFC01668357
:100D1000CD0104960E94700581E090E00895862F31
:100D200090E067FF12C0FC01E058F10921E030E0DB
:100D300001C0220FEA95EAF714968C911497822B42
:100D400014968C93149760E0BACF1C96ED91FC91A9
:100D50001D97E80FF91F6491611109C081E090E0CF
:100D600013969C938E93129790E080E00895862FBF
:100D7000807C803C69F414968C911497806414965E
:100D80008C9314976F73623309F099CF64E697CF11
:100D900067FFF9CF14968C911497826014968C9308
:100DA00014976F77F0CF01968630910509F0A9CF9F
:100DB000D5CFEF92FF921F93CF93DF93EC01162FC5
:100DC0000E945B067C01612FCE010E940506C701CF
:100DD0009927DF91CF911F91FF90EF90089508958B
:100DE00090E080E008951F920F920FB60F921124A9
:100DF0008F939F938091E1009091E100937F909376
:100E0000E10083FF0FC01092E90091E09093EB00A6
:100E10001092EC0092E39093ED0010925C0198E048
:100E20009093F00082FF22C093E09093E9009091AC
:100E3000F200992319F09AE39093E80090914E0103
:100E4000992341F090914E01915090934E01911150
:100E500001C05D9A90915B01992341F090915B01F3
:100E6000915090935B01911101C0289A84FF18C0A2
:100E70008091E2008E7E81608093E2008091E100AB
:100E80008F7E8093E10080914D018E7E8061809302
:100E90004D019F918F910F900FBE0F901F9018954D
:100EA00080FFF7CF8091E2008E7E80618093E20028
:100EB0008091E1008E7E8093E10080914D018E7ED5
:100EC0008160E5CF1F920F920FB60F921124CF923F
:100ED000DF92EF92FF920F931F932F933F934F93C5
:100EE0005F936F937F938F939F93AF93BF93EF9392
:100EF000FF93CF93DF93CDB7DEB76C97DEBFCDBF47
:100F00001092E9008091E80083FF25C068E0CE01DF
:100F100045960E94EA0382EF8093E8008D8987FF5F
:100F200039C09091E80090FFFCCF982F907609F09F
:100F300034C19E894F89588D2F89F88C911131C009
:100F4000803861F580914C018093F1001092F1009E
:100F50008EEF8093E8006C960FB6F894DEBF0FBE5C
:100F6000CDBFDF91CF91FF91EF91BF91AF919F9155
:100F70008F917F916F915F914F913F912F911F9131
:100F80000F91FF90EF90DF90CF900F900FBE0F90DA
:100F90001F9018959EEF9093E800C7CF1092F10034
:100FA000D5CF913059F48111D3CF4130510581F61D
:100FB00080914C018D7F80934C01CACF933049F4CE
:100FC0008111C6CF4130510519F680914C018260E4
:100FD000F2CF953041F48091E80080FFFCCF20688B
:100FE0002093E300B5CF963009F0A9C00B8D1C8D7E
:100FF00022E01092E90010924A0110924901F21287
:101000002EC010924801109247010E94A3031F8234
:1010100099E09983FA8291E09E8390EA98879AEF0B
:1010200099872091490130914A01275F3F4F3C83C6
:101030002B838D831092E90010924A01109249018E
:10104000109348010093470149E050E0BE016F5FF3
:101050007F4F80E00E94F7020E94A30379CF109394
:101060004801009347010E940502DC0112960D9190
:101070001C910115110509F451C1D801ED91FC91A4
:101080000480F581E02DBE016B5E7F4FC80109959C
:10109000009709F03EC1F80100851185EACFF3E021
:1010A000FF120EC08F89882309F440C0823061F49A
:1010B00040E860E187E991E00E94C402811148CFD5
:1010C00081E28093EB0047CF813029F440E86BE068
:1010D0008BE891E0F1CF833099F70E940502DC01A3
:1010E0001296ED90FC908E010F5F1F4F6801E11486
:1010F000F10479F0D701ED91FC910680F781E02DA4
:10110000B801C7010995080F111DF701E084F184AA
:10111000EECFD8011C92F60101900020E9F731973B
:10112000BF016C197D0940E0C601C6CF65E771E0DB
:10113000FB01449150E080E80E94F70209CF97300C
:1011400009F4BECF983021F481E08093F10000CF04
:10115000993009F0FDCE837009F0B2CFEDE0F1E0F7
:1011600081E031E096E32191222371F08093E90040
:101170003093EB00DF0111972C912093EC009093BA
:10118000ED008F5F873079F78EE78093EA00109249
:10119000EA008F8980935C01DBCE8B8D9C8D109251
:1011A000E90010924A0110924901909348018093FE
:1011B0004701898D811192C08E899D89913A49F4A8
:1011C000813209F07DCF47E050E064E071E080E0DB
:1011D000B3CF913209F074CF833269F48F89988D3F
:1011E000B0E0A0E08093000190930101A093020180
:1011F000B0930301ADCE803269F48091E80082FFA4
:10120000FCCF67E084E091E00E94EA038BEF8093DB
:10121000E8009ECE823209F09BCE8F8980930B012D
:10122000EEEFFFE7859194918B3F9C4D51F1E0E00B
:10123000F8E08091040190910501A0910601B09120
:101240000701803B9440A105B105F1F480910B01A9
:1012500080FD1AC0EE3F8AE0F80789F587E797E737
:10126000918380838091600080934B0188E19BE0B3
:101270000FB6F894A895809360000FBE909360001D
:1012800067CEEEEFFAE0D5CF80819181873797471F
:1012900009F05ECEA895809160008861809360001F
:1012A00080914B0180936000EE3F2AE0F20789F0C5
:1012B0008091FE0A9091FF0A9183808349CE8081BC
:1012C00091818737980751F29093FF0A8093FE0A25
:1012D000C5CF1092FF0A1092FE0A3ACE0E94050274
:1012E000DC0112960D911C910115110509F4E8CE4F
:1012F000D801ED91FC910190F081E02DBE016B5E73
:101300007F4FC8010995811123CEF8010085118511
:10131000EBCF181619060CF41BCED2CEF1E0FF125B
:10132000BECE69E771E004CF1F920F920FB60F9205
:1013300011242F933F938F939F93AF93BF938091EB
:101340003F0190914001A0914101B0914201309143
:101350003E0123E0230F2D3758F50196A11DB11D45
:1013600020933E0180933F0190934001A09341015F
:10137000B09342018091430190914401A0914501B5
:10138000B09146010196A11DB11D80934301909338
:101390004401A0934501B0934601BF91AF919F9145
:1013A0008F913F912F910F900FBE0F901F90189526
:1013B00026E8230F0296A11DB11DD2CFCF93109224
:1013C000600110925F0188EE93E0A0E0B0E08093AE
:1013D000610190936201A0936301B093640187E17E
:1013E00091E090935E0180935D018FEF9FEF90936A
:1013F0006A01809369011092D7011092D60185E3AA
:1014000091E09093D5018093D4018091CC0181111A
:1014100013C01092C7011092C60188E292E0909327
:10142000C9018093C8018FE290E09093CB01809333
:10143000CA0181E08093CC018091BE0181112AC054
:10144000C1E0C093B101C093B20187EB91E09093EA
:10145000B4018093B3011092B6011092B50189E2F4
:1014600091E09093AE018093AD011092B90110927A
:10147000B8011092BB011092BA01C093BC01C09395
:10148000BD0181EC8093B7010E9405020E945701C3
:10149000C093BE01E091B801F091B901309709F015
:1014A000E1C086EC91E09093B9018093B8018091FE
:1014B000BA019091BB012091CA013091CB01820FFA
:1014C000931F9093BB018093BA0188EA91E09093B7
:1014D000E1018093E00180EF8093E20182E080935C
:1014E000E3018EE190E0A0E0B0E08093E40190930E
:1014F000E501A093E601B093E7011092E801109294
:10150000E9011092EA011092EB011092EC0121EF37
:101510002093ED0123E02093EE018093EF0190935F
:10152000F001A093F101B093F2011092F301109237
:10153000F4011092F5011092F6011092F70122EFDA
:101540002093F80124E02093F9018093FA0190930D
:10155000FB01A093FC01B093FD011092FE011092DB
:10156000FF0110920002109201021092020223EF7A
:101570002093030225E020930402809305029093B8
:101580000602A0930702B09308021092090210927B
:101590000A0210920B0210920C0210920D0224EF1C
:1015A00020930E0226E020930F0280931002909366
:1015B0001102A0931202B09313021092140210921F
:1015C000150210921602109217021092180225EFBF
:1015D0002093190227E020931A0280931B02909314
:1015E0001C02A0931D02B0931E0210921F021092C3
:1015F000200210922102109222021092230226EF62
:101600002093240228E020932502809326029093C1
:101610002702A0932802B093290210922A02109266
:101620002B0210922C0210922D0210922E0227EF04
:1016300020932F0229E0209330028093310290936F
:101640003202A0933302B09334021092350210920A
:101650003602109237021092380210923902CF915E
:101660000895FC01808191810097D9F786EC91E083
:10167000918380831CCF789484B5826084BD84B5C7
:10168000816084BD85B5826085BD85B5816085BD7D
:1016900080916E00816080936E0010928100809135
:1016A00081008260809381008091810081608093BD
:1016B0008100809180008160809380008091910002
:1016C000826080939100809191008160809391006D
:1016D000809190008160809390008091C10084602F
:1016E0008093C1008091C10082608093C10080918D
:1016F000C10081608093C1008091C30081608093AC
:10170000C3008091C00082608093C0008091C200BD
:1017100081608093C20080917A00846080937A0017
:1017200080917A00826080937A0080917A00816053
:1017300080937A0080917A00806880937A0010927A
:101740005C0110924C0110924D018091D700816094
:101750008093D70080EA8093D80089B5806189BDE5
:1017600089B5826089BD09B400FEFDCF0E94C20424
:101770008091D8008F7C80618093D8008091E000B8
:10178000807F8093E0008091E1008E7E8093E10075
:101790008DE08093E200559A209A62E081E00E94F9
:1017A0006C0481E00E944304892B09F4FFCF61E0BF
:1017B00081E10E946C04E5E2F1E08491E6E0F1E071
:1017C000D491E7EEF0E0C491CC2389F081110E941E
:1017D000F703EC2FF0E0EE0FFF1FE455FF4FA5914C
:1017E000B4918FB7F894EC91ED2BEC938FBF5D9A89
:1017F00002EE11E062E0F80181810E946C04055F55
:101800001F4FF2E00A331F07A9F780E0C82E80E0DF
:10181000D82EC2EED1E089810E944304FF24F394C4
:10182000009709F0F12C2A85F21699F12FB7F89458
:1018300040913F01509140016091410170914201FE
:101840002FBF8E809F80A884B984481959096A09DE
:101850007B098A809B80AC80BD8084169506A60695
:10186000B706B8F42FB7F89440913F01509140016A
:1018700060914101709142012FBF4E835F83688761
:1018800079876881892B89F484ED91E00E945B0659
:10189000FA862B960C171D0709F0BDCFC114D10491
:1018A00009F4B7CF0E940000B4CF84ED91E00E940C
:1018B0000506EECFEE0FFF1F0590F491E02D099481
:0418C000F894FFCFCA
:1018C400FFFFFFFF00E100000000000000C1808175
:1018D400000000000000001902C305E5032F027C8C
:1018E400023A02580200000000C70158031D03EA2F
:0E18F4000100000000D906D905F006EF06003D
:00000001FF
